{
  "contractName": "Truite",
  "abi": [
    {
      "inputs": [],
      "payable": false,
      "stateMutability": "nonpayable",
      "type": "constructor"
    },
    {
      "anonymous": false,
      "inputs": [
        {
          "indexed": false,
          "name": "truite",
          "type": "uint32"
        }
      ],
      "name": "TruiteFired",
      "type": "event"
    },
    {
      "constant": false,
      "inputs": [],
      "name": "emitTruite",
      "outputs": [],
      "payable": false,
      "stateMutability": "nonpayable",
      "type": "function"
    }
  ],
  "bytecode": "0x6060604052341561000f57600080fd5b7f70b4b6265ee62476ebece2a46e2a1f243f33663fa2bd4ac9b518b44201af9cb8600c604051808263ffffffff16815260200191505060405180910390a160c28061005b6000396000f300606060405260043610603f576000357c0100000000000000000000000000000000000000000000000000000000900463ffffffff168063241f3ac6146044575b600080fd5b3415604e57600080fd5b60546056565b005b7f70b4b6265ee62476ebece2a46e2a1f243f33663fa2bd4ac9b518b44201af9cb8602a604051808263ffffffff16815260200191505060405180910390a15600a165627a7a72305820bb46c9cb64a8d0ea6a77fed591bf7df7bb2f168c3b8abc5f54b45b19ce99b58d0029",
  "source": "pragma solidity ^0.4.19;\n\ncontract Truite\n{\n    event TruiteFired(uint32 truite);\n\n    function Truite() public\n    {\n        emit TruiteFired(12);\n    }\n\n\n    function emitTruite () public\n    {\n        emit TruiteFired(42);\n    }\n    \n}\n",
  "sourcePath": "/home/ymaktepi/dev/truelevel/rust/web3/truffle/contracts/Truite.sol",
  "compiler": {
    "name": "solc",
    "version": "0.4.21+commit.dfe3193c.Emscripten.clang"
  },
  "schemaVersion": "2.0.0",
  "updatedAt": "2018-04-13T07:11:37.712Z"
}