{
  "contractName": "Truite",
  "abi": [
    {
      "inputs": [],
      "payable": false,
      "stateMutability": "nonpayable",
      "type": "constructor"
    },
    {
      "anonymous": false,
      "inputs": [
        {
          "indexed": false,
          "name": "truite",
          "type": "uint32"
        }
      ],
      "name": "TruiteFired",
      "type": "event"
    },
    {
      "anonymous": false,
      "inputs": [
        {
          "indexed": false,
          "name": "",
          "type": "address"
        },
        {
          "indexed": false,
          "name": "",
          "type": "address"
        },
        {
          "indexed": false,
          "name": "",
          "type": "uint256"
        }
      ],
      "name": "Transfer",
      "type": "event"
    },
    {
      "constant": false,
      "inputs": [],
      "name": "emitTruite",
      "outputs": [],
      "payable": false,
      "stateMutability": "nonpayable",
      "type": "function"
    }
  ],
  "bytecode": "0x6060604052341561000f57600080fd5b7f70b4b6265ee62476ebece2a46e2a1f243f33663fa2bd4ac9b518b44201af9cb8600c604051808263ffffffff16815260200191505060405180910390a17fddf252ad1be2c89b69c2b068fc378daa952ba7f163c4a11628f55a4df523b3ef3333600c604051808473ffffffffffffffffffffffffffffffffffffffff1673ffffffffffffffffffffffffffffffffffffffff1681526020018373ffffffffffffffffffffffffffffffffffffffff1673ffffffffffffffffffffffffffffffffffffffff168152602001828152602001935050505060405180910390a1610245806100fc6000396000f300606060405260043610610041576000357c0100000000000000000000000000000000000000000000000000000000900463ffffffff168063241f3ac614610046575b600080fd5b341561005157600080fd5b61005961005b565b005b7f70b4b6265ee62476ebece2a46e2a1f243f33663fa2bd4ac9b518b44201af9cb8602a604051808263ffffffff16815260200191505060405180910390a17fddf252ad1be2c89b69c2b068fc378daa952ba7f163c4a11628f55a4df523b3ef3333602a604051808473ffffffffffffffffffffffffffffffffffffffff1673ffffffffffffffffffffffffffffffffffffffff1681526020018373ffffffffffffffffffffffffffffffffffffffff1673ffffffffffffffffffffffffffffffffffffffff168152602001828152602001935050505060405180910390a17f70b4b6265ee62476ebece2a46e2a1f243f33663fa2bd4ac9b518b44201af9cb8602b604051808263ffffffff16815260200191505060405180910390a17fddf252ad1be2c89b69c2b068fc378daa952ba7f163c4a11628f55a4df523b3ef3333602b604051808473ffffffffffffffffffffffffffffffffffffffff1673ffffffffffffffffffffffffffffffffffffffff1681526020018373ffffffffffffffffffffffffffffffffffffffff1673ffffffffffffffffffffffffffffffffffffffff168152602001828152602001935050505060405180910390a15600a165627a7a72305820a6a2daadd683874320012482a302967ffbedc98eb3add08a8ed7d323e29c8a7f0029",
  "source": "pragma solidity ^0.4.19;\n\ncontract Truite\n{\n    event TruiteFired(uint32 truite);\n    event Transfer(address,address,uint256);\n\n    function Truite() public\n    {\n        emit TruiteFired(12);\n        emit Transfer(msg.sender, msg.sender, 12);\n    }\n\n\n    function emitTruite () public\n    {\n        emit TruiteFired(42);\n        emit Transfer(msg.sender, msg.sender, 42);\n        emit TruiteFired(43);\n        emit Transfer(msg.sender, msg.sender, 43);\n\n    }\n    \n}\n",
  "sourcePath": "/home/ymaktepi/dev/truelevel/rust/web3/truffle/contracts/Truite.sol",
  "compiler": {
    "name": "solc",
    "version": "0.4.21+commit.dfe3193c.Emscripten.clang"
  },
  "schemaVersion": "2.0.0",
  "updatedAt": "2018-04-20T12:35:16.804Z"
}